S01600004175746F6E6F6D6F7573204361722E737265639E
S11300000C942A000C9447000C9447000C9447006D
S11300100C9447000C9447000C9447000C94470040
S11300200C9447000C9447000C9447000C94470030
S11300300C9447000C9447000C9447000C94470020
S11300400C9447000C9447000C9447000C94470010
S11300500C94470011241FBECFE5D8E0DEBFCDBF0E
S113006010E0A0E6B0E0E8E0FBE002C005900D92ED
S1130070A639B107D9F720E0A6E9B0E001C01D9286
S1130080AC39B207E1F70E94E3020C9482050C94A8
S11300900000843008F072C0683008F06FC042304D
S11300A008F06CC0813001F130F08230B1F183305E
S11300B009F44CC00895413059F42AB381E090E02A
S11300C002C0880F991F6A95E2F7822B8ABB0895B4
S11300D02AB381E090E002C0880F991F6A95E2F785
S11300E0809582238ABB0895413059F427B381E077
S11300F090E002C0880F991F6A95E2F7822B87BBB4
S1130100089527B381E090E002C0880F991F6A9593
S1130110E2F78095822387BB0895413059F424B3D4
S113012081E090E002C0880F991F6A95E2F7822B64
S113013084BB089524B381E090E002C0880F991F26
S11301406A95E2F78095822384BB0895413059F47F
S113015021B381E090E002C0880F991F6A95E2F70D
S1130160822B81BB089521B381E090E002C0880F07
S1130170991F6A95E2F78095822381BB08958430A4
S113018008F072C0683008F06FC0423008F06CC0EC
S1130190813001F130F08230B1F1833009F44CC088
S11301A00895413059F42BB381E090E002C0880FE8
S11301B0991F6A95E2F7822B8BBB08952BB381E0DC
S11301C090E002C0880F991F6A95E2F78095822318
S11301D08BBB0895413059F428B381E090E002C00C
S11301E0880F991F6A95E2F7822B88BB089528B37C
S11301F081E090E002C0880F991F6A95E2F780952C
S1130200822388BB0895413059F425B381E090E0FE
S113021002C0880F991F6A95E2F7822B85BB089567
S113022025B381E090E002C0880F991F6A95E2F738
S11302308095822385BB0895413059F422B381E02F
S113024090E002C0880F991F6A95E2F7822B82BB67
S1130250089522B381E090E002C0880F991F6A9547
S1130260E2F78095822382BB0895843038F59FEFAE
S1130270960F9E3F18F1813069F028F0823089F0A2
S11302808330B1F008956F3F19F48FEF8ABB08955E
S11302901ABA08956F3F19F48FEF87BB089517BA00
S11302A008956F3F19F48FEF84BB089514BA08952D
S11302B06F3F19F48FEF81BB089511BA0895CF935E
S11302C0C82F80FF06C041E064E080E00E94BF00C8
S11302D005C040E064E080E00E94BF00C1FF06C0AA
S11302E041E065E080E00E94BF0005C040E065E0B9
S11302F080E00E94BF00C2FF06C041E066E080E0EB
S11303000E94BF0005C040E066E080E00E94BF009C
S1130310C3FF06C041E067E080E00E94BF0005C063
S113032040E067E080E00E94BF00CF910895CF9342
S1130330C82F40E061E081E00E94BF0040E062E03D
S113034081E00E94BF008C2F82958F700E945F0114
S113035041E063E081E00E94BF008FE99FE00197E4
S1130360F1F700C0000040E063E081E00E94BF00BC
S11303708C2F0E945F0141E063E081E00E94BF0096
S11303808FE99FE00197F1F700C0000040E063E0CF
S113039081E00E94BF00CF91089541E064E080E0D5
S11303A00E94490041E065E080E00E94490041E08C
S11303B066E080E00E94490041E067E080E00E943E
S11303C0490041E061E081E00E94490041E062E0CF
S11303D081E00E94490041E063E081E00E9449001D
S11303E02FE785EB91E0215080409040E1F700C079
S11303F0000040E061E081E00E94BF0040E062E074
S113040081E00E94BF0082E00E945F0141E063E05E
S113041081E00E94BF008FE99FE00197F1F700C0DF
S1130420000040E063E081E00E94BF0088E20E9497
S1130430970190EF9A95F1F78CE00E94970120EFD5
S11304402A95F1F781E00E9497018FE39FE10197DC
S1130450F1F700C0000086E00E9497010895CF9351
S1130460C82F41E061E081E00E94BF0040E062E00B
S113047081E00E94BF008C2F82958F700E945F01E3
S113048041E063E081E00E94BF008FE99FE00197B3
S1130490F1F700C0000040E063E081E00E94BF008B
S11304A08C2F0E945F0141E063E081E00E94BF0065
S11304B08FE99FE00197F1F700C0000040E063E09E
S11304C081E00E94BF00CF910895823050F46031E2
S11304D040F490E4899F600D1124862F80680E9467
S11304E097010895EF92FF920F931F93CF93DF9399
S11304F08C01D62FF42E642F8D2F0E946502E12CDF
S1130500C0E01BC02031310524F40E942F02CF5FCC
S113051014C02031310541F4E11006C060E081E0EF
S11305200E946502E39409C02032310534F491E05D
S1130530E91203C00E942F02CF5FF801EC0FF11DF6
S11305408081882361F02F2D30E02C0F311D90E144
S1130550D99F200D311D1124203231059CF2DF91E9
S1130560CF911F910F91FF90EF9008950E94CD01BC
S113057044E060E080E690E00E94720208950E94E8
S1130580CD0144E060E08BE690E00E9472020895A1
S11305900E94CD0142E060E085E790E00E94720293
S11305A008950E94CD0141E060E082E890E00E945D
S11305B0720208950E94CD0146E060E080E990E077
S11305C00E94720208950E94F4040E94BF040E94D3
S11305D085030E94CD010E94CA0409C00E94C8027A
S11305E00E948E030E94CA048431910510F044973E
S11305F0A8F70E94DA020E9408042FEF83ED90E32B
S1130600215080409040E1F700C000000E940C059A
S11306102FEF83ED90E3215080409040E1F700C03C
S113062000000E94CA0490939900809398000E944D
S113063003050E94FA042FEF83ED90E321508040DC
S11306409040E1F700C000000E94CA049093970014
S1130650809396000E9403052091980030919900A0
S1130660809196009091970082179307A0F480914F
S1130670980090919900459770F00E94BF020E94E3
S113068082042FEF83ED90E3215080409040E1F706
S113069000C00000A0CF2091960030919700809177
S11306A098009091990082179307A0F48091960086
S11306B090919700459770F00E94B6020E944504FD
S11306C02FEF83ED90E3215080409040E1F700C08C
S11306D0000081CF0E94D1020E94CB032FEF87EA52
S11306E091E6215080409040E1F700C000000E9454
S11306F0B6020E9445042FEF83ED90E32150804021
S11307009040E1F700C0000066CF6FEF83E00E94E5
S113071035016FEF82E00E943501089541E060E009
S113072082E00E94BF0040E061E082E00E94BF00DE
S113073041E062E082E00E94BF0041E064E082E0C8
S11307400E94BF0040E065E082E00E94BF0041E0FB
S113075063E082E00E94BF0041E066E082E00E9424
S1130760BF0040E067E082E00E94BF0041E060E03B
S113077083E00E94BF0041E062E083E00E94BF008A
S113078040E063E083E00E94BF0041E061E083E079
S11307900E94BF00089541E061E082E00E94BF0032
S11307A040E060E082E00E94BF0041E062E082E05D
S11307B00E94BF0040E064E082E00E94BF0041E08C
S11307C065E082E00E94BF0041E063E082E00E94B5
S11307D0BF0040E066E082E00E94BF0041E067E0C5
S11307E082E00E94BF0041E060E083E00E94BF001D
S11307F040E062E083E00E94BF0041E063E083E008
S11308000E94BF0041E061E083E00E94BF000895C0
S113081040E061E082E00E94BF0040E060E082E0EE
S11308200E94BF0040E062E082E00E94BF0040E01E
S113083064E082E00E94BF0040E065E082E00E9444
S1130840BF0040E063E082E00E94BF0040E066E059
S113085082E00E94BF0040E067E082E00E94BF00A7
S113086040E060E083E00E94BF0040E062E083E09B
S11308700E94BF0040E063E083E00E94BF0040E0CC
S113088061E083E00E94BF00089541E064E082E0FB
S11308900E94BF0040E065E082E00E94BF0041E0AA
S11308A063E082E00E94BF0041E062E083E00E94D6
S11308B0BF0040E063E083E00E94BF0041E061E0EC
S11308C083E00E94BF0041E061E082E00E94BF003B
S11308D040E060E082E00E94BF0041E062E082E02C
S11308E00E94BF0040E066E082E00E94BF0041E059
S11308F067E082E00E94BF0041E060E083E00E9484
S1130900BF00089540E061E082E00E94BF0041E042
S113091060E082E00E94BF0041E062E082E00E9469
S1130920BF0041E066E082E00E94BF0040E067E073
S113093082E00E94BF0041E060E083E00E94BF00CB
S113094040E064E082E00E94BF0041E065E082E0B4
S11309500E94BF0041E063E082E00E94BF0040E0EB
S113096062E083E00E94BF0041E063E083E00E9414
S1130970BF0041E061E083E00E94BF00089541E0D0
S113098060E080E00E94490040E061E080E00E9475
S1130990490008950E942C051DBC1CBC41E060E088
S11309A080E00E94BF0085E38A95F1F7000040E0F3
S11309B060E080E00E94BF00C99BFECF0E94430517
S11309C0C999FECF0E944D058CB59DB590939B00AF
S11309D080939A0080919A0090919B0064E770E064
S11309E00E945A05CB01089541E065E083E00E942E
S11309F0490008950E9415058FE097E20E9457056B
S1130A000E94390508950E9415058FEB9DE50E940B
S1130A1057050E94390508950E94150587E598E950
S1130A200E9457050E94390508958FB58E7F8FBDAA
S1130A308FB582608FBD8EB588608EBD8EB58061A6
S1130A408EBD8FB58F7B8FBD8FB580688FBD8FEFC7
S1130A5091EE97BD86BD08958FB58E7F8FBD8FB5FE
S1130A608D7F8FBD8EB5877F8EBD8EB58F7E8EBDFB
S1130A7008958EB581608EBD8EB58D7F8EBD8EB589
S1130A808B7F8EBD08958EB58E7F8EBD8EB58260B0
S1130A908EBD8EB58B7F8EBD08958EB58E7F8EBD37
S1130AA08EB58D7F8EBD8EB58B7F8EBD08959BBD1B
S1130AB08ABD089597FB072E16F4009407D077FD9E
S1130AC009D00E946E0507FC05D03EF490958195EF
S1130AD09F4F0895709561957F4F0895AA1BBB1B86
S1130AE051E107C0AA1FBB1FA617B70710F0A61B2A
S1130AF0B70B881F991F5A95A9F780959095BC014B
S10B0B00CD010895F894FFCF24
S1130B085475726E205269676874005475726E2049
S1130B184C656674004D6F766520466F7277617216
S1130B2864004D6F7665204261636B77617264007F
S1090B3853544F5000006D
S9030000FC
